:10000000A304020AA4047B007C007D007E00A405FA
:100010007000710072007300740075007600770044
:100020006400A304C50AA305B60BA3045F0BA304D5
:100030003A0AA304290AA305810BA305900BA30583
:02004000780B3B
:10005200A40430001002A4052600810541052105F3
:10006200A4041002A405260007022500410521056B
:100072000008A405160243063F0A400A430A010C7F
:10008200B600450AA4045B04A404060426064A0A30
:100092004B0A6A0A1F064E0A510AA4040605530AAD
:1000A200A4040604050CA40592000306590A5A0A80
:1000B2005F0A010C2F000F02F201C40AA4043B06DE
:1000C200630A640AC40A1E02A4053700A4043B059D
:1000D200C40A1F066D0A700AA4040605720AA40463
:1000E20006043B07750A760AC00A1E022F00010C9D
:1000F200310003042F03F1027A0AA4051702A404B3
:100102003200030412038F003D00FD06890A8A0AA9
:10011200900A1D0233007400F306F4009E0A1D02C9
:100122002E006F00EE06EF006E026F02AE02430673
:10013200AF020E0233000F02340014022F0013022A
:100142002E000F02800F2800800C88004307AB0AA4
:10015200050C8E000306AE0AAF0AB50A140CA405FC
:100162003600A4045B05C00AA4051702A404DD013D
:100172003C001C022700000CA3041909A304A404D8
:100182003B04A40572000008A3041D09A304000C8B
:10019200A3041F09A3040702A4043C00A80C9C00AA
:1001A2000306D40AD50ADB0A150C9C000306DA0AF8
:1001B200DB0AE30A5E0C3C001C022700000CA304CD
:1001C2001909A304A404780079007A00FE0CA4049F
:1001D200DC01A4053100020CA404DC01A4053000FA
:1001E200A4046607F50AF60A460BA3041B09A30436
:1001F2000702A4043E00A90C9E000307010B020B98
:10020200120B7A00010CA3041509A304140CA40414
:100212003700790C3600F6020C0BF7020C0B0000CB
:10022200E70A140C9E000306170B180B1A0B7A0030
:10023200420B010C2F000F02FA01030C9A00030774
:10024200230B240B420B1E022F00000C1F06010C75
:100252002800300CC80124000002A40436000F025A
:1002620096000307350B370B010C380B000CA30467
:100272001309A304000CA3041509A304A30417097A
:10028200A304A40478007900E70A010C2E006F0091
:100292000E02F8010306B9020F02F901090C9900D6
:1002A200C50C430698000307570B580BE70A010CCD
:1002B200A3041509A304420BA304000AA4043000FA
:1002C200D0004306650B680BA4041B056A0BA4044B
:1002D2001B04010C2F000F02A405F401050C94006D
:1002E2000307740B750BFF0B7400C90BA4044605BE
:1002F200FF0BA4047100B1023B06800B810B860B3D
:100302005B06840B850B860B710011022F000F0315
:100312000307460403064605FF0BA4047200B2025B
:100322001F06940B950B9E0B3B06980B990B9E0B8D
:100332005B069C0B9D0B9E0B720012022F000F039B
:100342000307460403064605FF0BA4047300B30229
:100352003B06AC0BAD0BB20B5B06B00BB10BB20B99
:10036200730013022F000F0303074604030646051A
:10037200FF0BA4045B06BE0BC10BA4044605C30B12
:10038200A4044604FF0BA4044604A4057300FF0B57
:10039200010C2F000F02F3011302010F4306770B2A
:1003A200030F43067A0B010F43067A0B070F43062E
:1003B2008E0B010F4306A60B030F4306A60B010F7C
:1003C2004306A60B0F0F4306A60B010F4306A60B0F
:1003D200030F4306BA0B010F4306BA0B070F43067E
:1003E200BA0B010F4306BA0B030F4306BA0B010FF8
:0E03F2004306BA0B1F0F4306C40BFF0B000897
:1006F000A40430001002A40526000105050227000D
:100700000008A40461006607860B870B8D0BA90CFB
:10071000810003078C0B8D0B830B0102270000085F
:10072000080CA3041F09A3050702A40431001F0439
:1007300011079B0B1F05A4041F069F0BA00BA30B07
:1007400072007300A70B300C3200000C3300120251
:1007500026001F06AC0BAF0BA4040605B10BA404C6
:1007600006040A0C0600830C02000008A4043500ED
:100770001506BB0BBE0BA4040605C00BA40406049F
:100780000602A4053500A40415024307C80BC90BD3
:10079000D40BA4051502CF0E2E006F000E02A40488
:1007A00033000F023400DE0B300C2E006F000E02FF
:1007B000A4051501A40433000F023400130226001F
:1007C00015022F00000C1F06010C8F014306E90BD8
:1007D000EA0BFE0B1F041507EE0B1F05A404150200
:1007E0002700080CA3041909A3057E0CA4043200F9
:0E07F000F80C3100F102FA0BF202FA0B0008CD
:021FFE00CA0F08
:00000001FF
